:020000040800F2
:100000000028002099060008E9060008E906000813
:10001000E9060008E9060008E906000800000000FB
:10002000000000000000000000000000C9040008FB
:10003000E9060008000000004104000889040008E7
:10004000E9060008E9060008E9060008E9060008D4
:10005000E9060008E9060008750A0008990A000880
:10006000BD0A0008E10A0008050B0008E9060008BF
:10007000E9060008E9060008E9060008E9060008A4
:10008000E9060008E9060008E9060008E906000894
:10009000E9060008E9060008E9060008290B00083F
:1000A000E9060008E9060008E9060008E906000874
:1000B000E9060008E9060008E9060008E906000864
:1000C000E9060008E9060008E9060008890E0008AC
:1000D000E50E0008410F0008550F0008690F0008E1
:1000E000D10B0008E906000800000000E90600083E
:1000F000E9060008E9060008E9060008E906000824
:10010000E9060008E9060008E9060008E906000813
:10011000E9060008E9060008E9060008E906000803
:10012000E9060008E9060008E9060008E9060008F3
:1001300010B5054C237833B9044B13B10448AFF321
:1001400000800123237010BD040000200000000087
:10015000C40F000808B5034B1BB103490348AFF3B4
:10016000008008BD0000000008000020C40F000847
:1001700080B588B000AF0023FB61754B1B68002B76
:1001800040F0DC80734B1B680133BB61714ABB6973
:100190001360BB69002B10D16F4B1B687B616F4BE9
:1001A0001B686D4A13606D4A7B6913606C4B1B685A
:1001B00001336B4A136000F027F96A4B1B68BA6978
:1001C0009A42C0F0A680644B1B681B68002B04D1C8
:1001D000644B4FF0FF321A609BE05F4B1B68DB689B
:1001E000DB683B613B695B68FB60BA69FB689A420C
:1001F00003D25C4AFB6813608BE03B695B69BB60C0
:100200003B699B683A69D2689A603B69DB683A69E6
:1002100092685A60BB685A683B6904339A4203D1BA
:100220003B69DA68BB685A603B6900225A61BB6867
:100230001B685A1EBB681A603B699B6A002B1ED064
:100240003B699B6A7B603B69DB693A69126A9A6029
:100250003B691B6A3A69D2695A607B685A683B6994
:1002600018339A4203D13B691A6A7B685A603B692A
:1002700000229A627B681B685A1E7B681A603B6981
:10028000DB6A01229A40384B1B681343364A1360DD
:100290003B69DA6A354913469B0013449B000B44C3
:1002A00004331B683B603B693A689A603B689A6814
:1002B0003B69DA603B689B683A6904325A603B6983
:1002C0001A1D3B689A603B69DA6A13469B00134427
:1002D0009B00264A1A443B695A613B69DA6A234902
:1002E00013469B0013449B000B441B68591C1F487A
:1002F00013469B0013449B00034419603B69DA6A70
:100300001B4B1B68DB6A9A42FFF45DAF0123FB6164
:1003100059E7174B1B68DA6A144913469B001344CC
:100320009B000B441B68012B01D90123FB61114B7E
:100330001B68002B07D00123FB6104E00E4B1B68F8
:1003400001330D4A1360FB6918462037BD4680BD56
:10035000A800002090000020880000208C000020D1
:10036000A0000020A4000020940000202400002011
:10037000200000209C0000209800002080B485B060
:1003800000AF1C4B1B68002B03D01B4B01221A60D3
:100390002AE0194B00221A60184B1B687B607B68AF
:1003A000B3FA83F3FB70FB78C3F11F03FB60FA68B9
:1003B00013469B0013449B00114A1344BB60BB6867
:1003C0005B685A68BB685A60BB685A68BB68083388
:1003D0009A4204D1BB685B685A68BB685A60BB68C4
:1003E0005B68DB68074A136000BF1437BD4680BCFA
:1003F000704700BFA80000209C000020940000204F
:10040000240000202000002080B400AF094B1B68AE
:100410001B68002B04D1084B4FF0FF321A6005E037
:10042000044B1B68DB681B68034A136000BFBD46B2
:1004300080BC704788000020A4000020000000005D
:10044000EFF30980BFF36F8F0D4B1A6820E9F00FAF
:1004500010602DE908404FF0BF0080F31188FFF7CE
:100460008DFF4FF0000080F31188BDE80840196847
:100470000868B0E8F00F80F30988BFF36F8F70470A
:100480002000002000BF00BF80B582B000AF4FF059
:10049000BF0383F31188BFF36F8FBFF34F8F7B6070
:1004A000FFF766FE0346002B03D0064B4FF0805249
:1004B0001A6000233B603B6883F3118800BF083754
:1004C000BD4680BD04ED00E080B400AFEFF31483BF
:1004D0004FEA53034FEA430383F3148800BFBD463A
:1004E00080BC704780B483B000AF786039607A68B0
:1004F0003B68134418460C37BD4680BC704700006B
:1005000080B400AF0D4B1B78DBB2002B06D10C4B37
:1005100001221A70094B01221A700AE0074B1B785E
:10052000DBB2012B05D1074B01221A70034B0022CD
:100530001A7000BFBD4680BC704700BFC4000020D9
:10054000AC000020AD00002080B500AF2F4B1B6831
:10055000A3F500732E4A13602D4B1B68083B2D4AF0
:1005600013602C4B1B68643B2B4A13602A4B1B689F
:10057000083B2A4A1360294B1B68643B284A1360D6
:1005800000BF284B1B78DBB2012B1DD1214B1B6810
:10059000184680F30988EFF3148040F0020080F3DE
:1005A0001488EFF3148343F0010383F314881421B8
:1005B0000A20FFF797FF03DFEFF3148000F0050038
:1005C00080F3148800BFDBE7174B1B78DBB2012BED
:1005D000D6D1124B1B68184680F30988EFF31480BC
:1005E00040F0020080F31488EFF3148343F001031A
:1005F00083F3148814210A20FFF774FF03DFEFF35D
:10060000148000F0050080F31488B9E70000002092
:10061000BC000020C0000020D0000020C800002046
:10062000CC000020AC000020AD00002080B586B0DA
:1006300000AF154B9B69144A43F004039361124BBE
:100640009B69114A43F0080393610F4B9B690E4A63
:1006500043F0010393610D4A3B1D07CA83E807007D
:1006600001237B740A4B7B6102233B743B1D1846BC
:1006700000F0F4F9074B1B68064A43F400031360CB
:10068000FFF762FFFEE700BF00100240DC0F00082A
:100690000105000800E100E00D488546AFF3008049
:1006A0000C480D490D4A002302E0D458C4500433CD
:1006B000C4188C42F9D30A4A0A4C002301E01360A3
:1006C0000432A242FBD300F059FCFFF7AFFFFEE774
:1006D000002800200000002004000020F00F000887
:1006E0000400002010010020FEE7000080B483B069
:1006F00000AF0346FB80FB880F2B54D801A252F8B1
:1007000023F000BF450700085307000861070008F1
:100710006F0700087D0700088B0700088B0700089B
:100720008B0700088B0700088B0700089907000853
:100730009907000899070008990700089907000819
:10074000990700081A4B1B68194A43F040031360CD
:1007500029E0174B1B68164A43F08003136022E020
:10076000134B1B68124A43F4807313601BE0104B59
:100770001B680F4A43F40073136014E00C4B1B68B2
:100780000B4A43F4806313600DE0094B1B68084A71
:1007900043F40003136006E0064B1B68054A43F46C
:1007A0008073136000BF00BF0C37BD4680BC70472C
:1007B00000E100E004E100E080B483B000AF034654
:1007C000FB80FB880F2B54D801A252F823F000BF06
:1007D000110800081F0800082D0800083B08000841
:1007E000490800085708000857080008570800087B
:1007F0005708000857080008650800086508000841
:100800006508000865080008650800086508000814
:100810001A4B1B68194A43F04003136029E0174B39
:100820001B68164A43F08003136022E0134B1B68D9
:10083000124A43F4807313601BE0104B1B680F4A8D
:1008400043F40073136014E00C4B1B680B4A43F431
:10085000806313600DE0094B1B68084A43F40003F2
:10086000136006E0064B1B68054A43F4807313606F
:1008700000BF00BF0C37BD4680BC704780E100E080
:1008800084E100E080B584B000AF78607B681B89AC
:100890003B810123BB727B685B6807F1080211464C
:1008A000184600F06DFA7B681B889B089BB2FB73AF
:1008B0007B681B88DBB203F00303DBB29B00BB73D6
:1008C0005F4AFB7B023352F82320BB7B0F2101FAE6
:1008D00003F3DB4318465A49FB7B0240023341F8DD
:1008E0002320574AFB7B023352F823207B685B6846
:1008F00054498B4216D07B685B6853498B420FD0BA
:100900007B685B6851498B4208D07B685B685049C3
:100910008B4201D1032306E0002304E0022302E01E
:10092000012300E00023B97B8B4018464449FB7B40
:100930000243023341F82320464B9B687A681288B1
:10094000114601228A40D2431146424A0B4093602D
:10095000404BDB687A681288114601228A40D243F4
:1009600011463C4A0B40D3607B681B7B002B0BD1AC
:10097000384B9B687A681288114601228A401146DA
:10098000344A0B43936029E07B681B7B012B0BD11E
:10099000304BDB687A681288114601228A40114682
:1009A0002C4A0B43D36019E07B681B7B022B15D1CB
:1009B000284B9B687A681288114601228A401146AA
:1009C000244A0B439360234BDB687A6812881146F4
:1009D00001228A4011461F4A0B43D3607B681B8863
:1009E00019467B681B691C4A42F821307B685B7B97
:1009F000012B10D1174B1B687A681288114601220F
:100A00008A401146134A0B4313607B681B881846C3
:100A1000FFF76CFE10E00F4B1B687A6812881146D6
:100A200001228A40D24311460A4A0B4013607B6878
:100A30001B881846FFF7C0FE00BF1037BD4680BDBB
:100A40000000014000080140000C0140001001407E
:100A50000014014000040140D400002080B582B0A1
:100A600000AF78607868FFF70DFF00BF0837BD461C
:100A700080BD000080B500AF054B5B69044A43F0C0
:100A800001035361034B1B68984700BF80BD00BF43
:100A900000040140D400002080B500AF054B5B6925
:100AA000044A43F002035361034B5B68984700BF5D
:100AB00080BD00BF00040140D400002080B500AF1D
:100AC000054B5B69044A43F004035361034B9B6885
:100AD000984700BF80BD00BF00040140D400002043
:100AE00080B500AF054B5B69044A43F008035361CE
:100AF000034B5B6B984700BF80BD00BF0004014003
:100B0000D400002080B500AF054B5B69044A43F078
:100B100010035361034B1B69984700BF80BD00BFA2
:100B200000040140D400002080B500AF264B5B6973
:100B300003F02003002B08D0234B5B69224A43F0CB
:100B400020035361214B5B6998471F4B5B6903F09E
:100B50004003002B08D01C4B5B691B4A43F0400349
:100B600053611A4B9B699847174B5B6903F08003ED
:100B7000002B08D0144B5B69134A43F08003536188
:100B8000124BDB699847104B5B6903F48073002BB1
:100B900008D00D4B5B690C4A43F4807353610B4BD7
:100BA0001B6A9847084B5B6903F40073002B08D05D
:100BB000054B5B69044A43F400735361034B5B6A62
:100BC000984700BF80BD00BF00040140D400002052
:100BD00080B500AF2D4B5B6903F48063002B08D018
:100BE0002A4B5B69294A43F480635361284B9B6A13
:100BF0009847264B5B6903F40063002B08D0234B16
:100C00005B69224A43F400635361214BDB6A9847D6
:100C10001E4B5B6903F48053002B08D01B4B5B69B0
:100C20001A4A43F480535361194B1B6B9847174B77
:100C30005B6903F40053002B08D0144B5B69134A23
:100C400043F400535361124B5B6B98470F4B5B6946
:100C500003F48043002B08D00C4B5B690B4A43F430
:100C6000804353610A4B9B6B9847084B5B6903F4C5
:100C70000043002B08D0054B5B69044A43F4004352
:100C80005361034BDB6B984700BF80BD00040140FC
:100C9000D400002080B485B000AF0346FB80002361
:100CA000FB81FB88802B49D0802B11DC082B39D0AD
:100CB000082B06DC022B2FD0042B30D0012B28D0A0
:100CC00057E0202B34D0402B35D0102B2DD050E0C6
:100CD000B3F5006F3ED0B3F5006F09DCB3F5007FCC
:100CE00032D0B3F5806F32D0B3F5807F29D040E0A9
:100CF000B3F5005F34D0B3F5005F03DCB3F5805F7C
:100D00002BD036E0B3F5804F2DD0B3F5004F2DD06A
:100D10002FE00023FB812CE00423FB8129E0082342
:100D2000FB8126E00C23FB8123E01023FB8120E0E4
:100D30001423FB811DE01823FB811AE01C23FB8197
:100D400017E00023FB8114E00423FB8111E008235A
:100D5000FB810EE00C23FB810BE01023FB8108E0FC
:100D60001423FB8105E01823FB8102E01C23FB8197
:100D700000BFFB89DBB218461437BD4680BC704704
:100D800090B585B000AF786039600023BB60002368
:100D9000FB733B681B88FF2B01D87B6801E07B68F5
:100DA0000433BB603B681B881846FFF773FF03469C
:100DB0001A460F239340DA43BB681B681A40BB688E
:100DC0001A603B689B78052B0BD03B689B78042B03
:100DD00007D03B689B78072B03D03B689B78062B9A
:100DE0000ED13B689B78043B9B005AB23B68DB7892
:100DF0005BB213435BB2DBB203F00F03FB7331E072
:100E00003B689B78012B03D03B689B78002B07D174
:100E10003B689B789B00DBB203F00F03FB7321E080
:100E20003B689B78082B02D10823FB731AE03B68D0
:100E30009B789B00DBB203F00F03FB733B689B784E
:100E4000022B07D17B68DB683A6812881A437B68FB
:100E5000DA6007E07B68DB683A681288D2431A40A0
:100E60007B68DA60FC7B3B681B881846FFF712FF43
:100E7000034604FA03F2BB681B681A43BB681A6096
:100E800000BF1437BD4690BD80B582B000AF134B94
:100E90009B685B0803F00103DAB23B7962F300035D
:100EA0003B710E4B9B6803F00103DAB23B7962F3AE
:100EB00041033B71094B9B681B0903F00103DAB244
:100EC0003B7962F382033B71054B1B685B693879A0
:100ED000984700BF0837BD4680BD00BF00300140C5
:100EE000B000002080B582B000AF134B9B685B0858
:100EF00003F00103DAB23B7962F300033B710E4B5E
:100F00009B6803F00103DAB23B7962F341033B7162
:100F1000094B9B681B0903F00103DAB23B7962F3CA
:100F200082033B71054B5B685B693879984700BF6A
:100F30000837BD4680BD00BF00380040B00000202B
:100F400080B500AF024B1B681B69984700BF80BD8E
:100F5000B800002080B500AF024B1B681B699847A2
:100F600000BF80BDB800002080B500AF024B1B68F9
:100F70001B69984700BF80BDB800002070B50025F0
:100F80000C4E0D4CA41BA410A54209D100F01AF878
:100F900000250A4E0A4CA41BA410A54205D170BD21
:100FA00056F8253098470135EEE756F82530984732
:100FB0000135F2E7E80F0008E80F0008E80F000825
:100FC000EC0F0008F8B500BFF8BC08BC9E4670479F
:0C0FD000F8B500BFF8BC08BC9E46704796
:0C0FDC00000000000008014001000600B9
:040FE80055010008A7
:040FEC0031010008C7
:040FF00000280020B5
:040000050800069950
:00000001FF
