S01700004763634170706C69636174696F6E322E737265635A
S11300000C942A000C9434000C9434000C943400A6
S11300100C9434000C9434000C9434000C9434008C
S11300200C9434000C9434000C9434000C9434007C
S11300300C9434000C9434000C9434000C9434006C
S11300400C9434000C9434000C9434000C9434005C
S11300500C94340011241FBECFE5D8E0DEBFCDBF21
S11300600E9436000C945A000C9400008FEF8ABB57
S113007084B38E7F84BB85B3816085BB20E098996F
S1130080FECF283008F020E03BB381E090E0022E60
S113009002C0880F991F0A94E2F783278BBB2F5F56
S11300A03FEF84E39CE0315080409040E1F700C092
S10B00B00000E5CFF894FFCF36
S9030000FC
