:100000000C942A000C9434000C9434000C943400AA
:100010000C9434000C9434000C9434000C94340090
:100020000C9434000C9434000C9434000C94340080
:100030000C9434000C9434000C9434000C94340070
:100040000C9434000C9434000C9434000C94340060
:100050000C94340011241FBECFE5D8E0DEBFCDBF25
:100060000E9443000C946D000C94000098B39F7E96
:1000700098BB6FB9779BFECF8FB9779BFECF88B3C4
:10008000806188BB089580EB87BB81E58EB969E00C
:100090008FEF0E9436006BE087E00E9436006AE036
:1000A0008FE00E9436006CE081E00E94360060E044
:1000B000C1E007C0D1E0D60F8C2F0E943600CF5F81
:1000C0006D2FC930B8F32FE38DE093E021508040CD
:0E00D0009040E1F700C00000EBCFF894FFCFA6
:00000001FF
