:100000000C942A000C94CA010C94F3010C941C0269
:100010000C9447000C9447000C9447000C94470044
:100020000C9447000C9447000C9447000C94470034
:100030000C9447000C9447000C9447000C94470024
:100040000C9447000C9447000C9447000C94470014
:100050000C94470011241FBECFE5D8E0DEBFCDBF12
:1000600010E0A0E6B0E0EEE8F4E002C005900D92EA
:10007000A037B107D9F720E0A0E7B0E001C01D929A
:10008000A737B207E1F70E9447010C9445020C9490
:10009000000041E063E082E40E94520183ED90E3BE
:1000A0000197F1F700C0000040E063E082E40E94A5
:1000B00052010895CF93C82F40E061E082E40E948E
:1000C000520140E062E082E40E9452018BB38F70E3
:1000D0009C2F907F892B8BBB0E94490089EF90E079
:1000E0000197F1F700C0000080917000882331F083
:1000F0008BB3C295C07FCBBB0E94490083EF91E0D8
:100100000197F1F700C00000CF91089581E00E94AF
:100110005A00089587E893E10197F1F700C00000C5
:1001200087E08ABB8BB3887F8BBB8FEF8ABB85EA66
:100130009EE00197F1F700C000000E94860080E277
:100140000E945A0080E20E945A0080E80E945A00F1
:1001500089EF90E00197F1F700C0000080E00E9475
:100160005A0080EF0E945A0089EF90E00197F1F762
:1001700000C0000080E00E945A0080E10E945A0006
:1001800083EF91E00197F1F700C0000081E08093D8
:10019000700086E00E945A0080E80E945A008FE0BA
:1001A0000E945A000895CF93C82F41E061E082E495
:1001B0000E94520140E062E082E40E9452018BB34F
:1001C0008F709C2F907F892B8BBB0E94490089EFF9
:1001D00090E00197F1F700C000008BB3C295C07F9B
:1001E000CBBB0E944900CF910895823050F460311A
:1001F00040F490E4899F600D1124862F80680E944E
:100200005A000895EF92FF920F931F93CF93DF93BD
:100210008C01D62FF42E642F8D2F0E94F500E12C37
:10022000C0E01CC02031310524F40E94D300CF5F10
:1002300015C02031310549F4E11007C060E081E0CC
:100240000E94F500EE24E39409C02032310534F415
:1002500091E0E91203C00E94D300CF5FF801EC0FD8
:10026000F11D8081882361F02F2D30E02C0F311D8E
:1002700090E1D99F200D311D11242132310594F2D6
:10028000DF91CF911F910F91FF90EF9008950E9401
:100290008A0040E060E080E690E00E94020180E099
:1002A00090E00895823429F118F4813439F00895EA
:1002B0008334D1F1843409F452C00895413059F4A3
:1002C0002BB381E090E002C0880F991F6A95E2F796
:1002D000822B8BBB089541115CC02BB381E090E071
:1002E00002C0880F991F6A95E2F7809582238BBB25
:1002F0000895413059F428B381E090E002C0880F9E
:10030000991F6A95E2F7822B88BB0895411141C07D
:1003100028B381E090E002C0880F991F6A95E2F748
:100320008095822388BB0895413059F425B381E03C
:1003300090E002C0880F991F6A95E2F7822B85BB77
:100340000895411126C025B381E090E002C0880FD6
:10035000991F6A95E2F78095822385BB0895413005
:1003600059F422B381E090E002C0880F991F6A958A
:10037000E2F7822B82BB089541110BC022B381E0CA
:1003800090E002C0880F991F6A95E2F7809582235A
:1003900082BB08951F920F920FB60F9211242F93D4
:1003A0003F934F935F936F937F938F939F93AF93FD
:1003B000BF93EF93FF93E0917500F0917600309733
:1003C00009F00995FF91EF91BF91AF919F918F91A6
:1003D0007F916F915F914F913F912F910F900FBE41
:1003E0000F901F9018951F920F920FB60F92112425
:1003F0002F933F934F935F936F937F938F939F932D
:10040000AF93BF93EF93FF93E0917300F09174006B
:10041000309709F00995FF91EF91BF91AF919F91AE
:100420008F917F916F915F914F913F912F910F909D
:100430000FBE0F901F9018951F920F920FB60F923C
:1004400011242F933F934F935F936F937F938F93D9
:100450009F93AF93BF93EF93FF93E0917100F0915F
:100460007200309709F00995FF91EF91BF91AF911C
:100470009F918F917F916F915F914F913F912F91BC
:0E0480000F900FBE0F901F901895F894FFCFAD
:10048E004B6172696D20456C204D656C6967790012
:00000001FF
