:100000000C942A000C9465020C948E020C94B70296
:100010000C9447000C9447000C9447000C94470044
:100020000C9447000C9447000C9447000C94470034
:100030000C9447000C9447000C9447000C94470024
:100040000C9447000C9447000C9447000C94470014
:100050000C94470011241FBECFE5D8E0DEBFCDBF12
:1000600010E0A0E6B0E0E4E5F6E002C005900D92F5
:10007000AC39B107D9F720E0ACE9B0E001C01D927E
:10008000A23AB207E1F70E941C010C9428030C94D9
:10009000000041E062E081E00E94F0018FE493EC17
:1000A0000197F1F700C0000040E062E081E00E94AB
:1000B000F0010895CF93C82F40E060E081E00E94F6
:1000C000F00140E061E081E00E94F001CBBB0E94C2
:1000D00049008FEC97E00197F1F700C00000CF9145
:1000E000089581E00E945A0008958FE19EE40197EF
:1000F000F1F700C0000087E087BB88B3887F88BB2A
:100100008FEF8ABB87E99AE30197F1F700C00000FF
:100110000E94710088E30E945A0086E00E945A0003
:1001200080E80E945A008FE00E945A000895CF9301
:10013000C82F41E060E081E00E94F00140E061E012
:1001400081E00E94F00187EE93E00197F1F700C093
:100150000000CBBB0E944900CF910895823050F43B
:10016000603140F490E4899F600D1124862F8068EF
:100170000E945A000895EF92FF920F931F93CF931E
:10018000DF938C01D62FF42E642F8D2F0E94AE00AA
:10019000E12CC0E01CC02031310524F40E949700FE
:1001A000CF5F15C02031310549F4E11007C060E090
:1001B00081E00E94AE00EE24E39409C020323105B4
:1001C00034F491E0E91203C00E949700CF5FF80178
:1001D000EC0FF11D8081882361F02F2D30E02C0F72
:1001E000311D90E1D99F200D311D1124213231059F
:1001F00094F2DF91CF911F910F91FF90EF900895AE
:10020000DC0190E001C09F5F292F30E0FD01E20F8B
:10021000F31F4081442331F0FB01E20FF31F5081B3
:100220005111F1CFFB01E20FF31F8081481711F04C
:1002300081E0089580E00895CF93DF93CDB7DEB7D6
:100240002F970FB6F894DEBF0FBECDBF0E9475008A
:100250000E94E002CE0101960E940F0340E061E09F
:10026000CE0101960E94BB002FEF88E09DE3215054
:1002700080409040E1F700C0000040E060E083E093
:100280000E947B0141E061E083E00E947B0141E04C
:1002900064E083E00E947B0141E065E083E00E942E
:1002A0007B0180E690E00E94FE0289E790E00E94D8
:1002B000FE02CE0101960E940F0364E970E0CE01B8
:1002C00001960E940001811106C041E065E083E0D3
:1002D0000E94F00105C041E064E083E00E94F0016B
:1002E00080E090E02F960FB6F894DEBF0FBECDBF32
:1002F000DF91CF910895813011F130F08230D1F14A
:10030000833009F452C00895413059F42AB381E092
:1003100090E002C0880F991F6A95E2F7822B8ABB92
:10032000089541115CC02AB381E090E002C0880FBB
:10033000991F6A95E2F7809582238ABB0895413020
:1003400059F427B381E090E002C0880F991F6A95A5
:10035000E2F7822B87BB0895411141C027B381E0AA
:1003600090E002C0880F991F6A95E2F7809582237A
:1003700087BB0895413059F424B381E090E002C076
:10038000880F991F6A95E2F7822B84BB089541116B
:1003900026C024B381E090E002C0880F991F6A95BF
:1003A000E2F78095822384BB0895413059F421B34C
:1003B00081E090E002C0880F991F6A95E2F7822BD6
:1003C00081BB089541110BC021B381E090E002C0D0
:1003D000880F991F6A95E2F78095822381BB089563
:1003E000813011F130F08230D1F1833009F452C004
:1003F0000895413059F42BB381E090E002C0880F9A
:10040000991F6A95E2F7822B8BBB089541115CC05E
:100410002BB381E090E002C0880F991F6A95E2F744
:10042000809582238BBB0895413059F428B381E035
:1004300090E002C0880F991F6A95E2F7822B88BB73
:100440000895411141C028B381E090E002C0880FB7
:10045000991F6A95E2F78095822388BB0895413001
:1004600059F425B381E090E002C0880F991F6A9586
:10047000E2F7822B85BB0895411126C025B381E0A8
:1004800090E002C0880F991F6A95E2F78095822359
:1004900085BB0895413059F422B381E090E002C059
:1004A000880F991F6A95E2F7822B82BB089541114C
:1004B0000BC022B381E090E002C0880F991F6A95BB
:1004C000E2F78095822382BB08951F920F920FB6A8
:1004D0000F9211242F933F934F935F936F937F93CA
:1004E0008F939F93AF93BF93EF93FF93E091A000FF
:1004F000F091A100309709F00995FF91EF91BF911C
:10050000AF919F918F917F916F915F914F913F91AB
:100510002F910F900FBE0F901F9018951F920F9262
:100520000FB60F9211242F933F934F935F936F93C6
:100530007F938F939F93AF93BF93EF93FF93E0913C
:100540009E00F0919F00309709F00995FF91EF917F
:10055000BF91AF919F918F917F916F915F914F91DB
:100560003F912F910F900FBE0F901F9018951F92E3
:100570000F920FB60F9211242F933F934F935F93D7
:100580006F937F938F939F93AF93BF93EF93FF935B
:10059000E0919C00F0919D00309709F00995FF9142
:1005A000EF91BF91AF919F918F917F916F915F91EB
:1005B0004F913F912F910F900FBE0F901F90189564
:1005C0008AB188608AB98AB180618AB986E880BDBB
:1005D00087E689B980B580BD80E008955D9BFECF38
:1005E0008CB980E00895009739F05F9BFECF2CB165
:1005F000FC01208380E0089581E00895CF93DF938C
:10060000EC01892B21F407C00E94EE02219688811B
:100610008111FACF01C081E0DF91CF9108951F933E
:10062000CF93DF93EC01892B11F010E001C011E0B2
:10063000CE010E94F30288818D3021F08A3011F0C2
:100640002196F6CF1882812FDF91CF911F910895C7
:04065000F894FFCF4C
:10065400456E746572203120746F204C4544204FE0
:100664004E204C6564310D0A00456E74657220326B
:1006740020746F204C4544204F4E2042757A7A6591
:0C068400720D0A004C4544204F4E00004F
:00000001FF
