S01200004156525F4472697665722E737265635E
S11300000C942A000C9421030C944A030C9473035B
S11300100C9447000C9447000C9447000C94470040
S11300200C9447000C9447000C9447000C94470030
S11300300C9447000C9447000C9447000C94470020
S11300400C940A020C9447000C9447000C9447004B
S11300500C94470011241FBECFE5D8E0DEBFCDBF0E
S113006010E0A0E6B0E0E2E9FAE002C005900D92EB
S1130070A036B107D9F720E0A0E6B0E001C01D9298
S1130080AB36B207E1F70E94B1010C9447050C941A
S1130090000041E063E080E00E94AC028FE493EC56
S11300A00197F1F700C0000040E063E080E00E94A7
S11300B0AC020895CF93DF93C82F40E061E080E065
S11300C00E94AC0240E062E080E00E94AC028BB38C
S11300D08F709C2F907F892B8BBB0E94490087EEE9
S11300E093E00197F1F700C000008091600088233D
S11300F049F08BB3C82B90E1C99FE0011124CBBB1D
S11301000E9449008FEC97E00197F1F700C00000CE
S1130110DF91CF91089581E00E945A0008958FE104
S11301209EE40197F1F700C000008AB382608ABBA5
S11301308AB384608ABB8AB388608ABB8BB38D7FA1
S11301408BBB8BB38B7F8BBB8BB3877F8BBB8AB310
S113015080618ABB8AB380628ABB8AB380648ABBAB
S11301608AB380688ABB87E99AE30197F1F700C0F4
S113017000000E948B0080E20E945A0080E20E94EC
S11301805A0080E80E945A0087EE93E00197F1F745
S113019000C0000080E00E945A0080EF0E945A00D4
S11301A087EE93E00197F1F700C0000080E00E9421
S11301B05A0080E10E945A008FEC97E00197F1F712
S11301C000C0000081E08093600086E00E945A0035
S11301D080E80E945A008FE00E945A000895CF934D
S11301E0C82F41E061E080E00E94AC0240E062E0A0
S11301F080E00E94AC028BB38F709C2F907F892B80
S11302008BBB0E94490087EE93E00197F1F700C091
S113021000002BB330E1C39FC0011124922F9F70C3
S1130220892B8BBB0E944900CF9108950F931F9394
S1130230CF93DF9300D000D01F92CDB7DEB7AC01CF
S1130240FE01319685E0DF011D928A95E9F74A3077
S1130250510590F580E3840F0E94EF0000E030C068
S11302609A01ADECBCEC0E9438059695879596955D
S11302708795969587959C01220F331F880F991FA8
S1130280880F991F880F991F820F931F9A01281BAB
S1130290390BE1E0F0E0EC0FFD1FE00FF11D2083CE
S11302A09A010E943805AC01569547955695479595
S11302B0569547950F5F01C000E04115510581F641
S11302C010E0015011090CC0E1E0F0E0EC0FFD1F5B
S11302D0E00FF11F8081805D0E94EF000150110941
S11302E0112394F70F900F900F900F900F90DF91C0
S11302F0CF911F910F910895CF93C82F0E94D101E0
S11303000E94DC018C2F0E94020240E06C2F80E0EE
S11303100E94370280E0CF910895CF93DF93EC01E0
S11303200E94E1010E94E601CE010E94ED01688174
S1130330798180E090E00E943D0425EE3FEF4FE993
S11303405BE30E94CB042AE037ED43E25CE30E94C6
S11303509C030E940E047983688380E0DF91CF912F
S11303600895CF93DF9300D0CDB7DEB71A821982F8
S11303700E948F0080E00E947C01CE0101960E94C1
S11303808D0189819A810E9416012FEF84E39CE0FC
S1130390215080409040E1F700C000000E948B0093
S11303A0ECCF86B1876086B987B1806487B987B19D
S11303B0806287B980E0089586B1806886B980E05C
S11303C0089586B1806486B980E00895349BFECF99
S11303D086B1806186B980E0089524B1229526957E
S11303E02695237030E0FC013183208345B150E031
S11303F0440F551F440F551F242B352B3183208365
S113040080E0089597B1907E97B997B1892B87B909
S113041080E008951F920F920FB60F9211242F932C
S11304203F934F935F936F937F938F939F93AF9378
S1130430BF93EF93FF93E0916300F09164003097D2
S113044029F080916100909162000995FF91EF91EC
S1130450BF91AF919F918F917F916F915F914F91D8
S11304603F912F910F900FBE0F901F9018958130E0
S113047011F130F08230D1F1833009F452C0089583
S1130480413059F42AB381E090E002C0880F991FEB
S11304906A95E2F7822B8ABB089541115CC02AB3A6
S11304A081E090E002C0880F991F6A95E2F7809579
S11304B082238ABB0895413059F427B381E090E048
S11304C002C0880F991F6A95E2F7822B87BB0895B3
S11304D0411141C027B381E090E002C0880F991F09
S11304E06A95E2F78095822387BB0895413059F4D9
S11304F024B381E090E002C0880F991F6A95E2F767
S1130500822B84BB0895411126C024B381E090E07E
S113051002C0880F991F6A95E2F78095822384BBF5
S11305200895413059F421B381E090E002C0880F6E
S1130530991F6A95E2F7822B81BB089541110BC084
S113054021B381E090E002C0880F991F6A95E2F719
S11305508095822381BB0895813011F130F082307F
S1130560D1F1833009F452C00895413059F42BB3CA
S113057081E090E002C0880F991F6A95E2F7822B10
S11305808BBB089541115CC02BB381E090E002C0A5
S1130590880F991F6A95E2F7809582238BBB089593
S11305A0413059F428B381E090E002C0880F991FCC
S11305B06A95E2F7822B88BB0895411141C028B3A4
S11305C081E090E002C0880F991F6A95E2F7809558
S11305D0822388BB0895413059F425B381E090E02B
S11305E002C0880F991F6A95E2F7822B85BB089594
S11305F0411126C025B381E090E002C0880F991F05
S11306006A95E2F78095822385BB0895413059F4B9
S113061022B381E090E002C0880F991F6A95E2F747
S1130620822B82BB089541110BC022B381E090E07C
S113063002C0880F991F6A95E2F78095822382BBD6
S113064008951F920F920FB60F9211242F933F9388
S11306504F935F936F937F938F939F93AF93BF93C6
S1130660EF93FF93E0916900F0916A00309709F0ED
S11306700995FF91EF91BF91AF919F918F917F91D8
S11306806F915F914F913F912F910F900FBE0F90FB
S11306901F9018951F920F920FB60F9211242F934B
S11306A03F934F935F936F937F938F939F93AF93F6
S11306B0BF93EF93FF93E0916700F0916800309748
S11306C009F00995FF91EF91BF91AF919F918F919F
S11306D07F916F915F914F913F912F910F900FBE3A
S11306E00F901F9018951F920F920FB60F9211241E
S11306F02F933F934F935F936F937F938F939F9326
S1130700AF93BF93EF93FF93E0916500F091660080
S1130710309709F00995FF91EF91BF91AF919F91A7
S11307208F917F916F915F914F913F912F910F9096
S11307300FBE0F901F9018950E94B0030C94910463
S11307400E948A0458F00E94830440F029F45F3F19
S113075029F00C947A0451110C94C5040C9480046F
S11307600E94A20468F39923B1F3552391F3951BD6
S1130770550BBB27AA2762177307840738F09F5FBE
S11307805F4F220F331F441FAA1FA9F335D00E2E2B
S11307903AF0E0E832D091505040E695001CCAF798
S11307A02BD0FE2F29D0660F771F881FBB1F26175B
S11307B037074807AB07B0E809F0BB0B802DBF0132
S11307C0FF2793585F4F3AF09E3F510578F00C9401
S11307D07A040C94C5045F3FE4F3983ED4F3869501
S11307E077956795B795F7959F5FC9F7880F911D22
S11307F09695879597F90895E1E0660F771F881F0E
S1130800BB1F621773078407BA0720F0621B730BC0
S1130810840BBA0BEE1F88F7E09508950E94AA0492
S113082088F09F5798F0B92F9927B751B0F0E1F0AD
S1130830660F771F881F991F1AF0BA95C9F714C05D
S1130840B13091F00E94C404B1E008950C94C40442
S1130850672F782F8827B85F39F0B93FCCF3869596
S113086077956795B395D9F73EF4909580957095F3
S113087061957F4F8F4F9F4F0895E89409C097FB70
S11308803EF490958095709561957F4F8F4F9F4F63
S11308909923A9F0F92F96E9BB279395F6958795A7
S11308A077956795B795F111F8CFFAF4BB0F11F46A
S11308B060FF1BC06F5F7F4F8F4F9F4F16C0882311
S11308C011F096E911C0772321F09EE8872F762F47
S11308D005C0662371F096E8862F70E060E02AF088
S11308E09A95660F771F881FDAF7880F9695879574
S11308F097F9089597F99F6780E870E060E008959C
S11309009FEF80EC089500240A9416161706180623
S11309100906089500240A941216130614060506FF
S11309200895092E0394000C11F4882352F0BB0F90
S113093040F4BF2B11F460FF04C06F5F7F4F8F4FF3
S11309409F4F089557FD9058440F551F59F05F3F2E
S113095071F04795880F97FB991F61F09F3F79F0DD
S113096087950895121613061406551FF2CF46955F
S1130970F1DF08C0161617061806991FF1CF8695E1
S11309807105610508940895E894BB2766277727C5
S1130990CB0197F908950E94DE040C9491040E94FF
S11309A0830438F00E948A0420F0952311F00C94FB
S11309B07A040C94800411240C94C5040E94A204AB
S11309C070F3959FC1F3950F50E0551F629FF0019E
S11309D0729FBB27F00DB11D639FAA27F00DB11DB7
S11309E0AA1F649F6627B00DA11D661F829F222740
S11309F0B00DA11D621F739FB00DA11D621F839FC7
S1130A00A00D611D221F749F3327A00D611D231F9C
S1130A10849F600D211D822F762F6A2F11249F57EA
S1130A2050409AF0F1F088234AF0EE0FFF1FBB1FED
S1130A30661F771F881F91505040A9F79E3F5105AC
S1130A4080F00C947A040C94C5045F3FE4F3983E60
S1130A50D4F3869577956795B795F795E7959F5F56
S1130A60C1F7FE2B880F911D9695879597F90895E8
S1130A70A29FB001B39FC001A39F700D811D1124DB
S1130A80911DB29F700D811D1124911D0895F8943C
S1050A90FFCF92
S9030000FC
