:100000000C942A000C946F020C9498020C94C10278
:100010000C9447000C9447000C9447000C94470044
:100020000C9447000C9447000C9447000C94470034
:100030000C9447000C9447000C9447000C94470024
:100040000C9447000C9447000C9447000C94470014
:100050000C94470011241FBECFE5D8E0DEBFCDBF12
:1000600010E0A0E6B0E0E8EDF5E002C005900D92EA
:10007000AC36B107D9F720E0ACE6B0E001C01D9284
:10008000A237B207E1F70E94D4000C94EA020C9464
:100090000000CF93DF93EC01698141E088810E94E9
:1000A00024018A81811106C041E0698188810E9412
:1000B000990107C0813029F440E0698188810E945C
:1000C0009901DF91CF910895CF93DF93EC0169817E
:1000D00041E088810E9424018A81811106C040E0AC
:1000E000698188810E94990107C0813029F441E02B
:1000F000698188810E949901DF91CF9108956111F2
:1001000003C00E94640008950E9449000895EF9280
:10011000FF920F931F93CF93DF937C01062F10E084
:100120001DC0C12FD0E0CE01880F991FC80FD91F65
:10013000CE0DDF1D8A81813059F4698140E08881CC
:100140000E9424014A81698188810E94990105C029
:10015000698140E088810E9424011F5F101708F325
:10016000DF91CF911F910F91FF90EF900895CF9362
:10017000DF931F92CDB7DEB7AE014F5F5F4FFC013B
:10018000618180810E940E0289810F90DF91CF9161
:10019000089589B390E0062E02C0959587950A943C
:1001A000E2F780FFF6CF0895CF93DF93CDB7DEB7A8
:1001B0002C970FB6F894DEBF0FBECDBF86E0E0E609
:1001C000F0E0DE01119601900D928A95E1F786E04C
:1001D000E6E6F0E0DE01179601900D928A95E1F7D0
:1001E00060E0CE0107960E947F0060E0CE010A9693
:1001F0000E947F0062E0CE0101960E948700CE013E
:1002000001960E94B70081110CC0CE0107960E9492
:10021000490089B360E00E94C900CE0107960E94A0
:100220006400CE0104960E94B7008111E8CFCE0190
:100230000A960E94490089B361E00E94C900CE017C
:100240000A960E946400DBCF813011F130F08230D9
:10025000D1F1833009F452C00895413059F42AB3E2
:1002600081E090E002C0880F991F6A95E2F7822B27
:100270008ABB089541115CC02AB381E090E002C0BE
:10028000880F991F6A95E2F7809582238ABB0895AB
:10029000413059F427B381E090E002C0880F991FE4
:1002A0006A95E2F7822B87BB0895411141C027B3BD
:1002B00081E090E002C0880F991F6A95E2F780956F
:1002C000822387BB0895413059F424B381E090E044
:1002D00002C0880F991F6A95E2F7822B84BB0895AC
:1002E000411126C024B381E090E002C0880F991F1D
:1002F0006A95E2F78095822384BB0895413059F4D2
:1003000021B381E090E002C0880F991F6A95E2F75F
:10031000822B81BB089541110BC021B381E090E095
:1003200002C0880F991F6A95E2F78095822381BBEE
:100330000895813011F130F08230D1F1833009F429
:1003400052C00895413059F42BB381E090E002C0CF
:10035000880F991F6A95E2F7822B8BBB0895411194
:100360005CC02BB381E090E002C0880F991F6A95B2
:10037000E2F7809582238BBB0895413059F428B36E
:1003800081E090E002C0880F991F6A95E2F7822B06
:1003900088BB0895411141C028B381E090E002C0BC
:1003A000880F991F6A95E2F78095822388BB08958C
:1003B000413059F425B381E090E002C0880F991FC5
:1003C0006A95E2F7822B85BB0895411126C025B3BB
:1003D00081E090E002C0880F991F6A95E2F780954E
:1003E000822385BB0895413059F422B381E090E027
:1003F00002C0880F991F6A95E2F7822B82BB08958D
:1004000041110BC022B381E090E002C0880F991F18
:100410006A95E2F78095822382BB08958130E9F0E6
:1004200030F0823081F1833009F443C0089579B30C
:1004300081E090E09C01062E02C0220F331F0A9437
:10044000E2F7872F90E08223932302C0959587954A
:100450006A95E2F7FA018083089576B381E090E02F
:100460009C01062E02C0220F331F0A94E2F7872F49
:1004700090E08223932302C0959587956A95E2F7D1
:10048000FA018083089573B381E090E09C01062E09
:1004900002C0220F331F0A94E2F7872F90E08223D5
:1004A000932302C0959587956A95E2F7FA018083B8
:1004B000089570B381E090E09C01062E02C0220FE7
:1004C000331F0A94E2F7872F90E08223932302C020
:1004D000959587956A95E2F7FA01808308951F92B2
:1004E0000F920FB60F9211242F933F934F935F9368
:1004F0006F937F938F939F93AF93BF93EF93FF93EC
:10050000E0917000F0917100309709F00995FF912A
:10051000EF91BF91AF919F918F917F916F915F917B
:100520004F913F912F910F900FBE0F901F901895F4
:100530001F920F920FB60F9211242F933F934F9358
:100540005F936F937F938F939F93AF93BF93EF933B
:10055000FF93E0916E00F0916F00309709F00995DC
:10056000FF91EF91BF91AF919F918F917F916F918B
:100570005F914F913F912F910F900FBE0F901F9061
:1005800018951F920F920FB60F9211242F933F933D
:100590004F935F936F937F938F939F93AF93BF938B
:1005A000EF93FF93E0916C00F0916D00309709F0AC
:1005B0000995FF91EF91BF91AF919F918F917F919D
:1005C0006F915F914F913F912F910F900FBE0F90C0
:0805D0001F901895F894FFCF6D
:0C05D80000000100010101000001010110
:00000001FF
