S01200004156525F4472697665722E737265635E
S11300000C942A000C94DC000C9405010C942E0131
S11300100C9447000C9447000C9447000C94470040
S11300200C9447000C9447000C9447000C94470030
S11300300C9447000C9447000C9447000C94470020
S11300400C9447000C9447000C9447000C94470010
S11300500C94470011241FBECFE5D8E0DEBFCDBF0E
S113006010E0A0E6B0E0E4E1F3E002C005900D92F8
S1130070A036B107D9F720E0A0E6B0E001C01D9298
S1130080A636B207E1F70E9449000C9488010C944B
S113009000000E9473018FEF8ABB0E945701C0E0E9
S11300A013C02FE38DE093E0215080409040E1F7AE
S11300B000C0000081E00C2E01C0880F0A94EAF70A
S11300C00E946E018BBBCF5FC83058F3E8CF8130FC
S11300D011F130F08230D1F1833009F452C0089527
S11300E0413059F42AB381E090E002C0880F991F8F
S11300F06A95E2F7822B8ABB089541115CC02AB34A
S113010081E090E002C0880F991F6A95E2F780951C
S113011082238ABB0895413059F427B381E090E0EB
S113012002C0880F991F6A95E2F7822B87BB089556
S1130130411141C027B381E090E002C0880F991FAC
S11301406A95E2F78095822387BB0895413059F47C
S113015024B381E090E002C0880F991F6A95E2F70A
S1130160822B84BB0895411126C024B381E090E022
S113017002C0880F991F6A95E2F78095822384BB99
S11301800895413059F421B381E090E002C0880F12
S1130190991F6A95E2F7822B81BB089541110BC028
S11301A021B381E090E002C0880F991F6A95E2F7BD
S11301B08095822381BB08951F920F920FB60F92F0
S11301C011242F933F934F935F936F937F938F9358
S11301D09F93AF93BF93EF93FF93E0916400F091EB
S11301E06500309709F00995FF91EF91BF91AF91A8
S11301F09F918F917F916F915F914F913F912F913B
S11302000F900FBE0F901F9018951F920F920FB66C
S11302100F9211242F933F934F935F936F937F9388
S11302208F939F93AF93BF93EF93FF93E0916200FB
S1130230F0916300309709F00995FF91EF91BF9118
S1130240AF919F918F917F916F915F914F913F916A
S11302502F910F900FBE0F901F9018951F920F9221
S11302600FB60F9211242F933F934F935F936F9385
S11302707F938F939F93AF93BF93EF93FF93E091FB
S11302806000F0916100309709F00995FF91EF91BA
S1130290BF91AF919F918F917F916F915F914F919A
S11302A03F912F910F900FBE0F901F9018958DB115
S11302B080618DB98DB181608DB98DB18F7D8DB91E
S11302C08DB1877F8DB98DB18B7F8DB98DB18E7FC7
S11302D08DB98DB180648DB980E008958FB9779B15
S11302E0FECF8FB1089541E064E081E00E94670091
S11302F041E065E081E00E94670040E066E081E063
S11303000E94670041E067E081E00E946700089571
S1070310F894FFCF8B
S9030000FC
