S01200004156525F4472697665722E737265635E
S11300000C942A000C940F020C9438020C94610294
S11300100C9447000C9447000C9447000C94470040
S11300200C9447000C9447000C9447000C94470030
S11300300C9447000C9447000C9447000C94470020
S11300400C9447000C9447000C9447000C94470010
S11300500C94470011241FBECFE5D8E0DEBFCDBF0E
S113006010E0A0E6B0E0ECE7F5E002C005900D92E8
S1130070A036B107D9F720E0A0E6B0E001C01D9298
S1130080A636B207E1F70E9400010C94BC020C945E
S1130090000041E062E081E00E949A018FE493EC69
S11300A00197F1F700C0000040E062E081E00E94A7
S11300B09A010895CF93C82F40E060E081E00E9448
S11300C09A0140E061E081E00E949A01CBBB0E946A
S11300D049008FEC97E00197F1F700C00000CF9141
S11300E0089581E00E945A0008958FE19EE40197EB
S11300F0F1F700C0000087E087BB88B3887F88BB26
S11301008FEF8ABB87E99AE30197F1F700C00000FB
S11301100E94710088E30E945A0086E00E945A00FF
S113012080E80E945A008FE00E945A000895CF93FD
S1130130C82F41E060E081E00E949A0140E061E064
S113014081E00E949A0187EE93E00197F1F700C0E5
S11301500000CBBB0E944900CF910895823050F437
S1130160603140F490E4899F600D1124862F8068EB
S11301700E945A000895EF92FF920F931F93CF931A
S1130180DF938C01D62FF42E642F8D2F0E94AE00A6
S1130190E12CC0E01CC02031310524F40E949700FA
S11301A0CF5F15C02031310549F4E11007C060E08C
S11301B081E00E94AE00EE24E39409C020323105B0
S11301C034F491E0E91203C00E949700CF5FF80174
S11301D0EC0FF11D8081882361F02F2D30E02C0F6E
S11301E0311D90E1D99F200D311D1124213231059B
S11301F094F2DF91CF911F910F91FF90EF900895AA
S1130200CF93DF93CDB7DEB76E970FB6F894DEBF0A
S11302100FBECDBF40E060E083E00E94250141E0D5
S113022061E083E00E9425010E9475000E948A0219
S1130230CE0101960E94A30240E060E0CE01019647
S11302400E94BB000E947100F3CF813011F130F0A5
S11302508230D1F1833009F452C00895413059F409
S11302602AB381E090E002C0880F991F6A95E2F7F3
S1130270822B8ABB089541115CC02AB381E090E0CF
S113028002C0880F991F6A95E2F7809582238ABB82
S11302900895413059F427B381E090E002C0880FFB
S11302A0991F6A95E2F7822B87BB0895411141C0DB
S11302B027B381E090E002C0880F991F6A95E2F7A6
S11302C08095822387BB0895413059F424B381E09B
S11302D090E002C0880F991F6A95E2F7822B84BBD5
S11302E00895411126C024B381E090E002C0880F34
S11302F0991F6A95E2F78095822384BB0895413063
S113030059F421B381E090E002C0880F991F6A95E7
S1130310E2F7822B81BB089541110BC021B381E028
S113032090E002C0880F991F6A95E2F780958223B6
S113033081BB0895813011F130F08230D1F18330E6
S113034009F452C00895413059F42BB381E090E090
S113035002C0880F991F6A95E2F7822B8BBB089520
S113036041115CC02BB381E090E002C0880F991F5B
S11303706A95E2F7809582238BBB0895413059F446
S113038028B381E090E002C0880F991F6A95E2F7D4
S1130390822B88BB0895411141C028B381E090E0CD
S11303A002C0880F991F6A95E2F78095822388BB63
S11303B00895413059F425B381E090E002C0880FDC
S11303C0991F6A95E2F7822B85BB0895411126C0D7
S11303D025B381E090E002C0880F991F6A95E2F787
S11303E08095822385BB0895413059F422B381E07E
S11303F090E002C0880F991F6A95E2F7822B82BBB6
S1130400089541110BC022B381E090E002C0880F2F
S1130410991F6A95E2F78095822382BB08951F9203
S11304200F920FB60F9211242F933F934F935F9324
S11304306F937F938F939F93AF93BF93EF93FF93A8
S1130440E0916400F0916500309709F00995FF91FF
S1130450EF91BF91AF919F918F917F916F915F9138
S11304604F913F912F910F900FBE0F901F901895B1
S11304701F920F920FB60F9211242F933F934F9315
S11304805F936F937F938F939F93AF93BF93EF93F8
S1130490FF93E0916200F0916300309709F00995B1
S11304A0FF91EF91BF91AF919F918F917F916F9148
S11304B05F914F913F912F910F900FBE0F901F901E
S11304C018951F920F920FB60F9211242F933F93FA
S11304D04F935F936F937F938F939F93AF93BF9348
S11304E0EF93FF93E0916000F0916100309709F081
S11304F00995FF91EF91BF91AF919F918F917F915A
S11305006F915F914F913F912F910F900FBE0F907C
S11305101F9018958AB188608AB98AB180618AB9B6
S113052086E880BD87E689B980B580BD80E00895FE
S1130530009739F05F9BFECF2CB1FC01208380E053
S1130540089581E008951F93CF93DF93EC01892BE5
S113055011F010E001C011E0CE010E9498028881E0
S11305608D3021F08A3011F02196F6CF1882812F38
S10F0570DF91CF911F910895F894FFCF04
S9030000FC
