S01200004156525F4472697665722E737265635E
S11300000C942A000C947C020C94A5020C94CE024D
S11300100C9447000C9447000C9447000C94470040
S11300200C9447000C9447000C9447000C94000176
S11300300C9447000C9447000C9447000C94470020
S11300400C9431010C9447000C9447000C94470025
S11300500C94470011241FBECFE5D8E0DEBFCDBF0E
S113006010E0A0E6B0E0ECEFF5E002C005900D92E0
S1130070A036B107D9F720E0A0E6B0E001C01D9298
S1130080AC36B207E1F70E94EF000C94FC020C942A
S1130090000041E063E080E00E94D30183ED90E33F
S11300A00197F1F700C0000040E063E080E00E94A7
S11300B0D3010895CF93DF93C82F40E061E080E03F
S11300C00E94D30140E062E080E00E94D3018BB340
S11300D08F709C2F907F892B8BBB0E94490089EFE6
S11300E090E00197F1F700C0000080916000882340
S11300F049F08BB3C82B90E1C99FE0011124CBBB1D
S11301000E94490083EF91E00197F1F700C00000DD
S1130110DF91CF91089581E00E945A00089587E805
S113012093E10197F1F700C000008AB382608ABBB3
S11301308AB384608ABB8AB388608ABB8BB38D7FA1
S11301408BBB8BB38B7F8BBB8BB3877F8BBB8AB310
S113015080618ABB8AB380628ABB8AB380648ABBAB
S11301608AB380688ABB85EA9EE00197F1F700C0F4
S113017000000E948B0080E20E945A0080E20E94EC
S11301805A0080E80E945A0089EF90E00197F1F745
S113019000C0000080E00E945A0080EF0E945A00D4
S11301A089EF90E00197F1F700C0000080E00E9421
S11301B05A0080E10E945A0083EF91E00197F1F721
S11301C000C0000081E08093600086E00E945A0035
S11301D080E80E945A008FE00E945A0008950E940D
S11301E08F0041E060E081E00E945E0181E083BF16
S11301F089B7816089BF0E94F70288E182BFFFCF7F
S11302001F920F920FB60F9211242F933F934F9387
S11302105F936F937F938F939F93AF93BF93EF936A
S1130220FF93809161008F5F80936100843041F47B
S113023088E182BF60E081E00E9448021092610080
S1130240FF91EF91BF91AF919F918F917F916F91AA
S11302505F914F913F912F910F900FBE0F901F9080
S113026018951F920F920FB60F9211242F933F935C
S11302704F935F936F937F938F939F93AF93BF93AA
S1130280EF93FF93E0916400F0916500309729F0BB
S113029080916200909163000995FF91EF91BF9165
S11302A0AF919F918F917F916F915F914F913F910A
S11302B02F910F900FBE0F901F901895813011F160
S11302C030F08230D1F1833009F452C008954130C6
S11302D059F42AB381E090E002C0880F991F6A950F
S11302E0E2F7822B8ABB089541115CC02AB381E0F6
S11302F090E002C0880F991F6A95E2F780958223E7
S11303008ABB0895413059F427B381E090E002C0DC
S1130310880F991F6A95E2F7822B87BB08954111D4
S113032041C027B381E090E002C0880F991F6A950D
S1130330E2F78095822387BB0895413059F424B3B2
S113034081E090E002C0880F991F6A95E2F7822B42
S113035084BB0895411126C024B381E090E002C01B
S1130360880F991F6A95E2F78095822384BB0895CC
S1130370413059F421B381E090E002C0880F991F05
S11303806A95E2F7822B81BB089541110BC021B31A
S113039081E090E002C0880F991F6A95E2F780958A
S11303A0822381BB0895813011F130F08230D1F184
S11303B0833009F452C00895413059F42BB381E0DD
S11303C090E002C0880F991F6A95E2F7822B8BBBDD
S11303D0089541115CC02BB381E090E002C0880F06
S11303E0991F6A95E2F7809582238BBB089541306B
S11303F059F428B381E090E002C0880F991F6A95F0
S1130400E2F7822B88BB0895411141C028B381E0F3
S113041090E002C0880F991F6A95E2F780958223C5
S113042088BB0895413059F425B381E090E002C0BF
S1130430880F991F6A95E2F7822B85BB08954111B5
S113044026C025B381E090E002C0880F991F6A9509
S1130450E2F78095822385BB0895413059F422B395
S113046081E090E002C0880F991F6A95E2F7822B21
S113047082BB089541110BC022B381E090E002C019
S1130480880F991F6A95E2F78095822382BB0895AD
S1130490813089F028F08230C9F0833011F1089559
S11304A02BB381E090E002C0880F991F6A95E2F7B0
S11304B082278BBB089528B381E090E002C0880FA7
S11304C0991F6A95E2F7822788BB089525B381E0D6
S11304D090E002C0880F991F6A95E2F7822785BBD6
S11304E0089522B381E090E002C0880F991F6A95B5
S11304F0E2F7822782BB08951F920F920FB60F92E4
S113050011242F933F934F935F936F937F938F9314
S11305109F93AF93BF93EF93FF93E0916A00F091A1
S11305206B00309709F00995FF91EF91BF91AF915E
S11305309F918F917F916F915F914F913F912F91F7
S11305400F900FBE0F901F9018951F920F920FB629
S11305500F9211242F933F934F935F936F937F9345
S11305608F939F93AF93BF93EF93FF93E0916800B2
S1130570F0916900309709F00995FF91EF91BF91CF
S1130580AF919F918F917F916F915F914F913F9127
S11305902F910F900FBE0F901F9018951F920F92DE
S11305A00FB60F9211242F933F934F935F936F9342
S11305B07F938F939F93AF93BF93EF93FF93E091B8
S11305C06600F0916700309709F00995FF91EF916B
S11305D0BF91AF919F918F917F916F915F914F9157
S11305E03F912F910F900FBE0F901F9018958FB7CA
S10F05F080688FBF80E00895F894FFCF6E
S9030000FC
