S01700004763634170706C69636174696F6E332E7372656359
S11300000C942A000C9461000C947D000C949900CB
S11300100C9434000C9434000C9434000C9434008C
S11300200C9434000C9434000C9434000C9434007C
S11300300C9434000C9434000C9434000C9434006C
S11300400C9434000C9434000C9434000C9434005C
S11300500C94340011241FBECFE5D8E0DEBFCDBF21
S11300600E9436000C94B5000C94000085B78160A2
S113007085BF85B7846085BF85B7886085BF84B731
S11300808F7B84BF8BB780628BBF8BB780648BBF41
S11300908BB780688BBF8FB780688FBF81B3806256
S11300A081BB81B3806481BB81B3806881BB82B32F
S11300B08F7D82BB82B38F7B82BB82B38F7782BBFF
S11300C0F6CF1F920F920FB60F9211242F938F9396
S11300D09F9382B3806282BB2FEF89E698E121501F
S11300E080409040E1F700C000009F918F912F91D4
S11300F00F900FBE0F901F9018951F920F920FB67E
S11301000F9211242F938F939F9382B3806482BBA9
S11301102FEF89E698E1215080409040E1F700C03C
S113012000009F918F912F910F900FBE0F901F9001
S113013018951F920F920FB60F9211242F938F933D
S11301409F9382B3806882BB2FEF89E698E12150A8
S113015080409040E1F700C000009F918F912F9163
S11101600F900FBE0F901F901895F894FFCFCC
S9030000FC
