:100000000C942A000C943F000C943F000C943F0089
:100010000C943F000C943F000C943F000C943F0064
:100020000C943F000C943F000C943F000C943F0054
:100030000C943F000C943F000C943F000C943F0044
:100040000C943F000C943F000C943F000C943F0034
:100050000C943F0011241FBECFE5D8E0DEBFCDBF1A
:1000600010E0A0E6B0E0E4E2F7E002C005900D92F7
:10007000AC3AB107D9F70E94F6020C9490030C94A5
:1000800000000E94470008950E944F0008950E94BA
:1000900049028CE00E9439020E949A0108952F9231
:1000A0003F924F925F926F927F928F929F92AF9208
:1000B000BF92CF92DF92EF92FF920F931F93CF9355
:1000C000DF93CDB7DEB72D970FB6F894DEBF0FBE26
:1000D000CDBF40E060E085E690E00E949402912C64
:1000E000712C0E949F01182F813669F00E947902BD
:1000F00083E294EF0197F1F700C0000081E00E94D5
:1001000039029394712E992061F340E060E087E713
:1001100090E00E949402912C0E949F01182F81363A
:1001200069F00E94790283E294EF0197F1F700C031
:10013000000081E00E9439029394012F992061F31D
:1001400040E060E089E890E00E949402912C812CCC
:100150000E949F01182F813669F00E94790283E284
:1001600094EF0197F1F700C0000081E00E9439028E
:100170009394812E992061F30B3209F44BC018F44B
:100180000A3231F05BC00D3281F10F32D1F056C02E
:10019000872D90E0C097912C20E3821A9108889DCA
:1001A0009001899D300D989D300D11242B87632E71
:1001B000932E990C9908792C9C869D86292C392C94
:1001C00027C0872D90E0C097682D70E060537109BB
:1001D0000E94FD026B87672E972E990C9908792C47
:1001E0009C869D86292C392C13C0872D90E0C097C2
:1001F000912C20E3821A9108881999098B87692E1E
:10020000992E990C9908792C9C869D86292C392C3D
:10021000812C54C0872D90E0C097912C20E3821A46
:100220009108880D991D8B87692E992E990C990834
:10023000792C9C869D86292C392CEACF40E060E001
:100240008CE990E00E9494021B86612C912C712C09
:100250001C861D86212C312CDBCF482C512C0F2ED7
:10026000FAE0AF2EF02DB12CC12CD12CE12CF12CC9
:1002700000E010E02B85362D492D572D6C857D85AE
:10028000822D932D0E941103E1E0F0E0EC0FFD1FA1
:10029000E40DF51D208383942B85362D492D572D94
:1002A0006C857D85822D932D0E9413032B87632EF1
:1002B000942E752E6C877D87282E392E2B85362D12
:1002C000492D572D6C857D85822D932DA0E00E94B0
:1002D000700319F640E060E082EA90E00E94940228
:1002E0000BC0E1E0F0E0EC0FFD1FE90DF11D808196
:1002F000805D0E947902892C99249A94980C81102F
:10030000F0CF2D960FB6F894DEBF0FBECDBFDF91B4
:10031000CF911F910F91FF90EF90DF90CF90BF9002
:10032000AF909F908F907F906F905F904F903F9095
:100330002F90089580EF81BB8FEF82BB089560E01E
:100340007CC082B3806F82BB22B3462F50E04C5FEB
:100350005F4F81E090E002C0880F991F4A95E2F755
:100360008095822382BB20E064C080B3E22FF0E05E
:10037000EF59FF4F3081432F90E002C0959587954C
:100380003A95E2F780FD54C080B390E0042E02C09D
:10039000959587950A94E2F780FFF6CF80916000EB
:1003A0008F5F809360006130B1F028F0623011F10E
:1003B000633079F147C0213041F008F445C0223064
:1003C00031F0233031F081E6089584E3089581E32C
:1003D00008958FE30895213039F0C0F1223031F0D3
:1003E000233031F081E6089585E3089582E308958E
:1003F00080E30895213039F058F1223031F0233074
:1004000031F081E6089586E3089583E308958DE34E
:100410000895213039F0F0F0223031F0233031F0FE
:1004200081E608958AE208958DE208958BE20895A9
:100430002F5F243008F499CF6F5F643008F481CFC8
:1004400081E6089581E6089587E3089588E3089595
:1004500089E308958FE2089588B3846088BB83EDB3
:1004600090E30197F1F700C0000088B38B7F88BB51
:10047000089598B39E7F98BB98B39D7F98BB8BBB24
:100480000E942C0283EF91E00197F1F700C0000079
:10049000089587E893E10197F1F700C0000087E035
:1004A00087BB88B3887F88BB8FEF8ABB85EA9EE0D5
:1004B0000197F1F700C0000081E00E94390288E353
:1004C0000E94390286E00E94390280E80E943902C7
:1004D0008FE00E9439020895823050F4603140F478
:1004E00090E4899F600D1124862F80680E94390254
:1004F0000895CF93C82F80916000803121F460E08F
:1005000081E00E946C02CBBB88B38D7F88BB88B32F
:10051000816088BB89EF90E00197F1F700C000008F
:100520000E942C02CF910895EF92FF920F931F9398
:10053000CF93DF93EC01062FF42E642F802F0E94BF
:100540006C02013011F0E12C01C0E02E10E034C04B
:10055000809739F460E080E00E946C021F5FF12C0C
:1005600000E08F2D90E0810F911D20E1029F800D12
:10057000911D11248031910544F4FE01E10FF11D1C
:1005800080810E9479021F5F17C08031910541F47C
:10059000E11006C060E081E00E946C02E3940CC0B0
:1005A000809754F481E0E81207C0FE01E10FF11DCD
:1005B00080810E9479021F5FFE01E10FF11D8081A1
:1005C000882369F08F2D90E0810F911D20E1029F1B
:1005D000800D911D1124813291050CF4B9CFDF916A
:1005E000CF911F910F91FF90EF9008950E944100CD
:1005F0000E94440080E090E0089597FB072E16F4D7
:10060000009407D077FD09D00E947C0307FC05D039
:100610003EF4909581959F4F0895709561957F4F19
:100620000895689401C0E8948F929F92CF93DF93CE
:100630000E941F03DF91CF919F908F90089588248F
:100640009924F401E401B0E49F93AA279A158B043E
:100650009C04ED05FE05CF05D007A10798F4AD2F4A
:10066000DC2FCF2FFE2FE92D982C892E982F872F46
:10067000762F652F542F432F322F2227B85031F772
:10068000BF9127C01B2EBF91BB27220F331F441FD2
:10069000551F661F771F881F991F881C991CEE1F06
:1006A000FF1FCC1FDD1FAA1FBB1F8A149B04EC0574
:1006B000FD05CE05DF05A007B10748F08A189B08A5
:1006C000EC09FD09CE09DF09A00BB10B21601A94DA
:1006D000E1F62EF49401AF01BE01CD01000C0895A6
:1006E0000024A7FD00942A17300540055005600539
:1006F0007005800590050895AA1BBB1B51E107C03A
:10070000AA1FBB1FA617B70710F0A61BB70B881FA1
:10071000991F5A95A9F780959095BC01CD01089530
:04072000F894FFCF7B
:10072400FF00010203456E7465722046697273749A
:100734004E756D203D2000456E746572206F7065A6
:10074400726174696F6E3D2000456E74657220534A
:1007540065636F6E644E756D203D20004572726F47
:0C0764007200526573756C74203D20001B
:00000001FF
