:020000040800F2
:100000000028002055020008A5020008A5020008EB
:10001000A5020008A5020008A502000800000000D3
:10002000000000000000000000000000A502000821
:10003000A502000800000000A5020008A5020008B3
:10004000A5020008A5020008A5020008A5020008F4
:10005000A5020008A5020008A9020008CD020008B8
:10006000F10200081503000839030008A502000882
:10007000A5020008A5020008A5020008A5020008C4
:10008000A5020008A5020008A5020008A5020008B4
:10009000A5020008A5020008A50200085D030008EB
:1000A000A5020008A5020008A5020008A502000894
:1000B000A5020008A5020008A5020008A502000884
:1000C000A5020008A5020008A5020008A502000874
:1000D000A5020008110A0008250A0008390A0008CC
:1000E00005040008A502000800000000A5020008A1
:1000F000A5020008A5020008A5020008A502000844
:10010000A5020008A5020008A5020008A502000833
:10011000A5020008A5020008A5020008A502000823
:10012000A5020008A5020008A5020008A502000813
:1001300010B5054C237833B9044B13B10448AFF321
:1001400000800123237010BD00000020000000008B
:10015000940A000808B5034B1BB103490348AFF3E9
:10016000008008BD0000000004000020940A000880
:1001700080B485B000AF78600023FB600BE0002303
:10018000BB6002E0BB680133BB60BB68FE2BF9DDDE
:10019000FB680133FB60FA687B689A42EFDB00BFC3
:1001A0001437BD4680BC704780B400AF0A4B9B69D2
:1001B000094A43F004039361074B9B69064A43F0E5
:1001C00008039361044B9B69034A43F00103936165
:1001D00000BFBD4680BC704700100240B0B58EB075
:1001E00000AF1A4B07F118041D460FCD0FC42B6842
:1001F000238007F12A0300221A605A609A60FFF7F1
:10020000D3FF4FF41653BB600023FB7300233B74F2
:1002100000237B6100237B7300233B730023BB73AC
:100220000C233B713B1D1946094800F0A1FA084810
:1002300000F088FB07F1180300221946044800F07B
:1002400055FBFA20FFF794FFF4E700BFAC0A000863
:10025000003801400D488546AFF300800C480D4939
:100260000D4A002302E0D458C4500433C4188C4211
:10027000F9D30A4A0A4C002301E013600432A24277
:10028000FBD300F0E3FBFFF7A9FFFEE70028002007
:100290000000002000000020EC0A00080000002000
:1002A0005C000020FEE7000080B500AF054B5B69F5
:1002B000044A43F001035361034B1B68984700BF96
:1002C00080BD00BF000401402000002080B500AFC9
:1002D000054B5B69044A43F002035361034B5B68BF
:1002E000984700BF80BD00BF0004014020000020EF
:1002F00080B500AF054B5B69044A43F004035361CA
:10030000034B9B68984700BF80BD00BF00040140BD
:100310002000002080B500AF054B5B69044A43F024
:1003200008035361034B5B6B984700BF80BD00BF60
:10033000000401402000002080B500AF054B5B6940
:10034000044A43F010035361034B1B69984700BFF5
:1003500080BD00BF000401402000002080B500AF38
:10036000264B5B6903F02003002B08D0234B5B690D
:10037000224A43F020035361214B5B6998471F4B8E
:100380005B6903F04003002B08D01C4B5B691B4AE0
:1003900043F0400353611A4B9B699847174B5B69C5
:1003A00003F08003002B08D0144B5B69134A43F021
:1003B00080035361124BDB699847104B5B6903F470
:1003C0008073002B08D00D4B5B690C4A43F480739B
:1003D00053610B4B1B6A9847084B5B6903F400732E
:1003E000002B08D0054B5B69044A43F4007353614A
:1003F000034B5B6A984700BF80BD00BF000401400B
:100400002000002080B500AF2D4B5B6903F48063B2
:10041000002B08D02A4B5B69294A43F4806353615F
:10042000284B9B6A9847264B5B6903F40063002BBB
:1004300008D0234B5B69224A43F400635361214B8C
:10044000DB6A98471E4B5B6903F48053002B08D08E
:100450001B4B5B691A4A43F480535361194B1B6B66
:100460009847174B5B6903F40053002B08D0144BDB
:100470005B69134A43F400535361124B5B6B98471B
:100480000F4B5B6903F48043002B08D00C4B5B6976
:100490000B4A43F4804353610A4B9B6B9847084BCC
:1004A0005B6903F40043002B08D0054B5B69044AE9
:1004B00043F400435361034BDB6B984700BF80BD9F
:1004C000000401402000002080B485B000AF034646
:1004D000FB800023FB81FB88802B49D0802B11DC23
:1004E000082B39D0082B06DC022B2FD0042B30D060
:1004F000012B28D057E0202B34D0402B35D0102BA7
:100500002DD050E0B3F5006F3ED0B3F5006F09DC9D
:10051000B3F5007F32D0B3F5806F32D0B3F5807F72
:1005200029D040E0B3F5005F34D0B3F5005F03DCC1
:10053000B3F5805F2BD036E0B3F5804F2DD0B3F507
:10054000004F2DD02FE00023FB812CE00423FB8102
:1005500029E00823FB8126E00C23FB8123E0102304
:10056000FB8120E01423FB811DE01823FB811AE0AE
:100570001C23FB8117E00023FB8114E00423FB8193
:1005800011E00823FB810EE00C23FB810BE010231C
:10059000FB8108E01423FB8105E01823FB8102E0C6
:1005A0001C23FB8100BFFB89DBB218461437BD4614
:1005B00080BC704790B585B000AF7860396000238B
:1005C000BB600023FB733B681B88FF2B01D87B6853
:1005D00001E07B680433BB603B681B881846FFF76B
:1005E00073FF03461A460F239340DA43BB681B6828
:1005F0001A40BB681A603B689B78052B0BD03B68A0
:100600009B78042B07D03B689B78072B03D03B6873
:100610009B78062B0ED13B689B78043B9B005AB21B
:100620003B68DB785BB213435BB2DBB203F00F03D2
:10063000FB7331E03B689B78012B03D03B689B78D0
:10064000002B07D13B689B789B00DBB203F00F03C4
:10065000FB7321E03B689B78082B02D10423FB73DA
:100660001AE03B689B789B00DBB203F00F03FB733F
:100670003B689B78022B07D17B68DB683A6812885D
:100680001A437B68DA6007E07B68DB683A681288A7
:10069000D2431A407B68DA60FC7B3B681B881846B3
:1006A000FFF712FF034604FA03F2BB681B681A4304
:1006B000BB681A6000BF1437BD4690BD80B400AF60
:1006C0000A4B5B689B0803F00303012B06D0012B48
:1006D00002D3022B04D005E0054B03E0054B01E0FB
:1006E000044BFFE71846BD4680BC7047001002402F
:1006F00000127A000024F40080B500AFFFF7DEFF9F
:100700000146054B5B681B0903F00F03034AD35CEA
:1007100021FA03F3184680BD00100240D40A0008F5
:1007200080B500AFFFF7E8FF0146054B5B681B0A89
:1007300003F00703034AD35C21FA03F3184680BD94
:1007400000100240CC0A000880B500AFFFF7D4FFCC
:100750000146054B5B68DB0A03F00703034AD35CE1
:1007600021FA03F3184680BD00100240CC0A0008AD
:1007700080B584B000AF78603960484A3B68136048
:100780007B68474A934206D1464B9B69454A43F4EE
:100790008043936114E07B68434A934206D1414B06
:1007A000DB69404A43F40033D36109E07B683F4A88
:1007B000934205D13B4BDB693A4A43F48023D36132
:1007C0007B68DB6843F400527B68DA607B68DB6837
:1007D0003A6812781A437B68DA607B68DB683A68AB
:1007E000127A1A437B68DA607B68DB683A68527A6F
:1007F0001A437B68DA607B681B693A68927A1A430D
:100800007B681A617B685B693A68D27A1A437B68B5
:100810005A617B68224A934203D1FFF795FFF86043
:1008200002E0FFF77DFFF8603B685B681B01FA6838
:10083000B2FBF3F31B01BB607B68BA689A603B684C
:100840001B7B002B26D07B68DB683A68127B1A433F
:100850007B68DA607B68124A934206D1144B1B68AE
:10086000134A43F02003136014E07B680E4A93425E
:1008700006D10F4B1B680E4A43F04003136009E09A
:100880007B680A4A934205D1094B1B68084A43F02A
:100890008003136000BF1037BD4680BD1C000020E0
:1008A0000038014000100240004400400048004071
:1008B00004E100E080B485B000AFF860B960134691
:1008C000FB71FB79002B06D100BFFB681B6803F0AE
:1008D0008003002BF9D0BB681B88DAB2FB685A6032
:1008E00000BF1437BD4680BC7047000080B586B09D
:1008F00000AFF860B9601346FB710023FB75FB790C
:10090000002B12D100BFFB681B6803F08003002B93
:10091000F9D00AE0FB7DBA68134400221946084862
:10092000FFF7C8FFFB7D0133FB75FB7DBA681344FD
:100930001B78002BEED100BF1837BD4680BD00BF2D
:100940000038014080B584B000AF78607B682B4AE6
:10095000934218D14FF40073BB810623BB7301236C
:10096000FB7307F10C0319462548FFF723FE4FF4EC
:100970008063BB810823BB7307F10C031946204831
:10098000FFF718FE36E07B681E4A934216D1042317
:10099000BB810623BB730123FB7307F10C031946CC
:1009A0001748FFF707FE0823BB810823BB7307F135
:1009B0000C0319461248FFF7FDFD1BE07B68124A45
:1009C000934217D14FF48063BB810623BB7301238D
:1009D000FB7307F10C0319460C48FFF7EBFD4FF4CE
:1009E0000063BB810823BB7307F10C03194607485A
:1009F000FFF7E0FD00BF1037BD4680BD0038014065
:100A0000000801400044004000480040000C014044
:100A100080B500AF024B1B681B69984700BF80BDC3
:100A20001C00002080B500AF024B1B681B69984773
:100A300000BF80BD1C00002080B500AF024B1B68CA
:100A40001B69984700BF80BD1C00002070B50025C1
:100A50000C4E0D4CA41BA410A54209D100F01AF8AD
:100A600000250A4E0A4CA41BA410A54205D170BD56
:100A700056F8253098470135EEE756F82530984767
:100A80000135F2E7E40A0008E40A0008E40A000875
:100A9000E80A0008F8B500BFF8BC08BC9E467047DD
:0C0AA000F8B500BFF8BC08BC9E467047CB
:100AAC004C6561726E20496E20446570746820201C
:100ABC00200000000000000000000000000000000A
:100ACC000000000001020304000000000000000010
:080ADC000102030406070809EA
:040AE40055010008B0
:040AE80031010008D0
:040000050800025598
:00000001FF
