S01700004763634170706C69636174696F6E312E737265635B
S11300000C942A000C9434000C9434000C943400A6
S11300100C9434000C9434000C9434000C9434008C
S11300200C9434000C9434000C9434000C9434007C
S11300300C9434000C9434000C9434000C9434006C
S11300400C9434000C9434000C9434000C9434005C
S11300500C94340011241FBECFE5D8E0DEBFCDBF21
S11300600E9436000C94F9000C9400008FEF8ABBB8
S11300708BB381608BBB2FEF84E39CE021508040E5
S11300809040E1F700C000008BB382608BBB2FEF80
S113009084E39CE0215080409040E1F700C00000E0
S11300A08BB384608BBB2FEF84E39CE021508040B2
S11300B09040E1F700C000008BB388608BBB2FEF4A
S11300C084E39CE0215080409040E1F700C00000B0
S11300D08BB380618BBB2FEF84E39CE02150804085
S11300E09040E1F700C000008BB380628BBB2FEF20
S11300F084E39CE0215080409040E1F700C0000080
S11301008BB380648BBB2FEF84E39CE02150804051
S11301109040E1F700C000008BB380688BBB2FEFE9
S113012084E39CE0215080409040E1F700C000004F
S11301308BB38F778BBB2FEF84E39CE021508040FF
S11301409040E1F700C000008BB38F7B8BBB2FEF97
S113015084E39CE0215080409040E1F700C000001F
S11301608BB38F7D8BBB2FEF84E39CE021508040C9
S11301709040E1F700C000008BB38F7E8BBB2FEF64
S113018084E39CE0215080409040E1F700C00000EF
S11301908BB3877F8BBB2FEF84E39CE0215080409F
S11301A09040E1F700C000008BB38B7F8BBB2FEF37
S11301B084E39CE0215080409040E1F700C00000BF
S11301C08BB38D7F8BBB2FEF84E39CE02150804069
S11301D09040E1F700C000008BB38E7F8BBB2FEF04
S11301E084E39CE0215080409040E1F700C000008F
S10901F03FCFF894FFCF9D
S9030000FC
